:020000040800F2
:1000000060080020D5000008D9040008B1030008EA
:1000100000000000000000000000000000000000E0
:10002000000000000000000000000000E5050008DE
:1000300000000000000000008505000869060008B7
:100040000501000805010008050100080501000878
:1000500089050008050100080501000805010008E0
:100060000501000805010008050100080501000858
:100070000501000805010008050100080501000848
:100080000501000800000000000000000501000854
:100090000000000005010008050100080501000836
:1000A00000000000050100080501000881070008A4
:1000B0000501000800000000050100080501000816
:1000C0000348854600F032F8004800473D0C000820
:1000D000600800200C4880F308880C480168090E6D
:1000E0000B4A914205D10B480B4901600B480C4962
:1000F00001600C4880470C480047FEE7FEE7FEE73A
:10010000FEE7FEE7FEE700006008002004000000B4
:100110001F00000018100240010000000000014014
:100120000000000079060008C1000008064C012507
:10013000064E05E0E36807CC2B430C3C984710348F
:10014000B442F7D3FFF7C0FF4C0E00086C0E000856
:1001500010B502460B460948806801242043074C2D
:10016000A060002104E088001058044C2060491C65
:100170009942F8D30148006810BD000000300240E9
:100180000548406940210843034948610020C043B5
:100190000249086170470000001002400030024030
:1001A0000F4840690121490408430D49486109206D
:1001B000C00600680F21890488430521C90440183E
:1001C0000921C90608600846406AFF2109018843E1
:1001D0001030FF21013108430921C90648627047E8
:1001E0000010024010B50A488069012189030843C4
:1001F0000749886107480849C86025200860002130
:100200001B2000F083F91B2000F076F910BD0000E0
:100210000010024088130000003801401348806934
:1002200040084000114988610846C06909048843B4
:100230000E49C8610846C0690121490688430B4937
:10024000C86108464069012149048843074948615B
:1002500008464069012189048843044948610846E9
:1002600040694021884301494861704700100240BD
:1002700030B5044604250B20000400F085F805463F
:10028000042D17D10C480069022108430A4908616E
:1002900008464461006940210843074908610B2072
:1002A000000400F071F80546034800690221884304
:1002B00001490861284630BD0020024004200D4954
:1002C000C968C907C90F002901D0012010E00949F8
:1002D000C96810221140002901D0022008E0054918
:1002E000C96804221140002901D0032000E0042045
:1002F000704700000020024078B506460C460425F1
:10030000002000900B20000400F03EF80546042D6C
:1003100024D1134800690121084311490861348040
:100320000B20000400F030F80546042D10D1B01C5D
:100330000090200C009908800B20000400F024F8A5
:10034000054607480069400840000549086105E086
:10035000034800694008400001490861284678BD0B
:10036000002002400548006980210840002804D090
:100370000348024948600348486070470020024033
:1003800023016745AB89EFCD10B503460424FFF781
:1003900095FF044603E0FFF791FF04465B1E012C26
:1003A00001D1002BF7D1002B00D10524204610BD30
:1003B00000BFFEE710B5042000F09EF800210420E5
:1003C00000F0A4F8384880680121C9020843364982
:1003D000886008460068092109040843324908601A
:1003E000084640680C210840082806D100BF2E4866
:1003F00040680C2108400428F9D12B4800680121ED
:10040000090688432849086000BF27480068012181
:10041000490608400028F8D1234840687B21C903D9
:10042000884321494860084640681121090408436F
:100430001D494860084600680121090608431A4919
:10044000086000BF184800680121490608400028DC
:10045000F8D0154840688008800013494860084675
:100460004068022108431049486000BF0E484068B8
:100470000C2108400828F9D10B484068F021884336
:1004800009494860084640684860084640680721B6
:100490000902884304494860084640680915084332
:1004A0000149486010BD00000010024010B572B64E
:1004B00007484068074908600549086880F30888CC
:1004C00000BFFFF7ABFE03480068804710BD000087
:1004D0000010000834000020064880688021084091
:1004E000002805D003488068090408430149886052
:1004F0007047000000100240C206D20E0121914058
:10050000014A11607047000000E100E010B50028CA
:1005100019DA1A4A03071B0F083B9B089B00D258A5
:100520008307DC0EFF23A3409A438B071B0E84072F
:10053000E40EA3401A43114B0407240F083CA408FF
:10054000A4001A5118E00E4A03231B02D218830894
:100550009B00D2588307DC0EFF23A3409A438B07EE
:100560001B0E8407E40EA3401A43054B0324240208
:100570001B198408A4001A5110BD00001CED00E0F6
:1005800000E100E070470000094880680821084049
:1005900000280BD006488068090408430449886095
:1005A0000846406880088000401C48607047000092
:1005B0000010024009488069012108430749886109
:1005C0000846C069090408430449C8610448006832
:1005D00010210843024908607047000000100240E3
:1005E000000001407047000011201D4908601D48AF
:1005F00040681C49486008464068486008464068B2
:100600007B21C90388431749486008464068052193
:10061000C9040843134948600846006801210906D7
:1006200008431049086000BF0E48006801214906D0
:1006300008400028F8D00B4840688008800009492D
:10064000486008464068022108430649486000BFE8
:10065000044840680C2108400828F9D17047000080
:10066000002002400010024002480068401C01497E
:10067000086070471800002010B51B480068012171
:100680000843194908600846406818490840164957
:100690004860084600681649084013490860084643
:1006A00000680121890488430F49086008464068B2
:1006B0003F21090488430C4948600846C06A000984
:1006C0000001C8620846006BFF21D4318843064907
:1006D00008630846406B400840004863002088607B
:1006E000FFF782FF10BD0000001002400CB8FF08A9
:1006F000FFFFF6FE70B5044600251E21194800F0E4
:1007000085FA19A1174800F0F7F907E028466A1C96
:10071000D5B2144A115C184800F084FB1148405DC2
:100720000028F3D100E000BF144800780028FAD078
:10073000002012490870322000F074FA04E0217899
:10074000641C0D4800F06EFB20780028F7D13220A1
:1007500000F068FA0848006A402108430649086228
:1007600070BD00004004002041542B4349505345C4
:100770004E443D312C340D00003801400200002071
:1007800010B50024CA48C0692021084020286FD134
:10079000C74820308088C4B2242C04D0462C08D00E
:1007A000572C22D113E0C3480078401CC14908707F
:1007B0001FE0C0480078012805D1BE480078401CE1
:1007C000BC49087002E00020BA49087011E0B9483D
:1007D0000078022805D1B7480078401CB549087058
:1007E00002E00020B349087003E00020B14908701E
:1007F00000BF00BFAF480078032805D10120AE49F3
:1008000008700020AB490870AB480078002811D16F
:10081000AA4801780078401CA84A1070A84844549F
:1008200010460078052805D10220A3490870002051
:1008300011460870A3480078022804D19E4804702D
:100840000020A0490870242C02D0432C15D105E0CB
:100850009C480078401C9B49087012E09948007839
:10086000012806D197480078401C9649087003E09B
:10087000F8E000209349087003E0002091490870D7
:1008800000BF00BF202C07D03E2C13D18E4800782B
:10089000401C8D49087011E08B480078012805D173
:1008A00089480078401C8849087002E00020864989
:1008B000087003E000208449087000BF00BF824830
:1008C0000078022805D101208049087000207E4967
:1008D00008707F480078002825D03A2C0CD07D483D
:1008E0000078042808DA7B4801780078401C794AAF
:1008F00010707948445416E0774800F035F977498C
:1009000008800846008801218902884202D9002017
:100910007249088000206E4908706E4908700421F1
:100920006D4800F073F96D480088002821D06C48AC
:100930000088401C6A49088008460088032807DDB3
:10094000684801880088401C664A10806648445404
:10095000644800886149098888420AD16148008852
:100960006249086000205D4908805E4908805C4952
:1009700008805F480078022874D1452C24D008DC18
:100980002B2C0DD02C2C5FD0312C72D0432C7ED14F
:1009900030E0492C3CD0522C08D0562C77D145E081
:1009A00054480078401C5349087074E0514800785E
:1009B000012805D14F480078401C4E49087002E0DC
:1009C00000204C49087066E04A480078022807D0A9
:1009D00048480078042803D046480078072805D105
:1009E00044480078401C4349087002E00020414917
:1009F000087050E03F480078032805D13D48007852
:100A0000401C3C49087002E000203A49087042E06E
:100A100038480078052805D136480078401C35490B
:100A2000087002E000203349087034E03148007853
:100A3000062805D12F480078401C2E49087002E096
:100A400000202C49087026E02A480078082803D0A6
:100A5000284800780A2808D126480078401C2549F3
:100A6000087005E022E004E011E000202149087050
:100A700011E020480078092805D11E480078401C64
:100A80001C49087002E000201A49087003E00020A9
:100A90001849087000BF00BF164800780B2805D120
:100AA00001200B49087000201249087010BD000099
:100AB0000038014000000020050000200F00002049
:100AC0001C00002006000020010000200200002081
:100AD000040000200E00002009000020100000206B
:100AE00012000020140000204000002024000020FC
:100AF00030000020030000200FB410B50846074A5C
:100B000002A900F01CF8044602A9002000F026F813
:100B1000204610BC08BC04B0184700005D0B00085C
:100B200002E008C8121F08C1002AFAD170477047B6
:100B3000002001E001C1121F002AFBD17047F8B567
:100B400016460F460446002503E03946B047641CAC
:100B50006D1C20780028F8D12846F8BD0A68531C7F
:100B60000B6010707047000001460020224A107090
:100B7000224A1070224A1080224A10702BE0002076
:100B80001E4A10701DE008782D2802D101201A4A53
:100B900010701C480078085C1B4A184B1B78D25C0C
:100BA000904209D1164800880A225043134A12780D
:100BB0008018134A108008E010480078401C0F4A43
:100BC00010700E4800780A28DDDB00BF0D48007861
:100BD000401C0C4A10700B480078085C0028CED1ED
:100BE00005480078002804D0054800884042044A9F
:100BF000108003480088704738000020390000202A
:100C00003C0000203A000020400E00080246002070
:100C100000BF03E000231354431C98B28842F9DB61
:100C200070470000044A116800BF034A1268521A54
:100C30008242FAD37047000018000020624C601E08
:100C40006249884200D90CE0601E61494861032175
:100C5000081FFFF75BFC00205D49886107200861E1
:100C600000BFFFF7A7FBFFF7A5FCFFF799FAFFF717
:100C7000B9FAFFF785FAFF20F530FFF7D3FF5548A3
:100C80000078002801D1FFF711FC9BE05248007862
:100C9000012804D002280DD0032838D130E00120EB
:100CA0004C4908704DA0FFF725FDFF20F530FFF7F8
:100CB000B9FF2DE047480078012820D1002149489C
:100CC000FFF7A4FF4848007900064749C97809049E
:100CD000084345498978090208434349497808434C
:100CE000424908604048007841490870022039496B
:100CF000087000203F4908603FA0FFF7FBFC07E0B9
:100D00003FA0FFF7F7FC03203249087000E000BF66
:100D100000BF3048007802284BD1364800680121D6
:100D20008902884245D11B2001218140364A116049
:100D300000BFFF2101312B48FFF70AFA05462C4876
:100D400000781D282BDC29480068854223D1FFF755
:100D500009FB2749097889022C4A8818FFF788FA85
:100D600000240AE01F4A1159214A12789202274BA7
:100D7000D2181019FFF7C0FA241D01208002844206
:100D8000F0D32348006980210843214908611AA053
:100D9000FFF7B0FC06E01FA0FFF7ACFC02E01FA0CD
:100DA000FFF7A8FC01200B4908701B20FFF7A4FBEC
:100DB00000BF08480078032804D13220FFF732FF33
:100DC000FFF774FB62E7000080BB0000FFFFFF003D
:100DD00000E000E03000002005000020244F4B31EF
:100DE00000000000400000201C0000202C0000201B
:100DF0002800002024000020244F4B320000000077
:100E0000244F4B330000000080E100E00010000898
:100E10000020024024455231000000002445523297
:100E20000000000000BF054AD26940231A40402A52
:100E3000F9D0024A20321181704700000038014089
:100E40003031323334353637383900006C0E000813
:100E50000000002040000000200B0008AC0E00083D
:100E60004000002020080000300B000800000000B7
:100E700000FF000000000000000000000000000073
:100E80000000000000000000000000000000000062
:100E90000000000000000000000000000000000052
:0C0EA00000000000000000000000000046
:04000005080000C12E
:00000001FF
