:020000040800F2
:1000000050080020D5000008F1070008C9060008C4
:1000100000000000000000000000000000000000E0
:10002000000000000000000000000000FD080008C3
:1000300000000000000000009D0800088109000881
:100040000501000805010008050100080501000878
:10005000A1080008050100080501000805010008C5
:100060000501000805010008050100080501000858
:100070000501000805010008050100080501000848
:100080000501000800000000000000000501000854
:100090000000000005010008050100080501000836
:1000A0000000000005010008050100080501000826
:1000B00005010008000000006902000805010008B1
:1000C0000348854600F032F800480047850A0008DA
:1000D000500800200C4880F308880C480168090E7D
:1000E0000B4A914205D10B480B4901600B480C4962
:1000F00001600C4880470C480047FEE7FEE7FEE73A
:10010000FEE7FEE7FEE700005008002004000000C4
:100110001F00000018100240010000000000014014
:100120000000000091090008C1000008064C0125EC
:10013000064E05E0E36807CC2B430C3C984710348F
:10014000B442F7D3FFF7C0FFF80A0008180B000805
:100150002549096B042211400172017A002904D15A
:100160002149096B490D016006E0017A042903D198
:100170001D49096BC90841601B49303149680907AD
:10018000090F41611849303189684172164930318F
:10019000896809040A0E827213493031896809029C
:1001A0000A0EC272104930318968090E01730E4976
:1001B0003031C96841730C493031C96809040A0EED
:1001C000827309493031C96809020A0EC2730649AF
:1001D0003031C968090E01740449C96820221143ED
:1001E000024AD16070470000806500400064004012
:1001F00019488068012189060840884225D10821D4
:10020000164841601648C0780006154989780904E7
:1002100008431349497809020843114909780843FA
:100220000E4988600E48C07900060D498979090495
:1002300008430B49497909020843094909790843E8
:100240000649C8600748086005E0034880688021C7
:1002500008430149886070470064004080650040A1
:10026000040000200100002070B55B48FFF770FF1C
:10027000594800685949884200D070BD58480078F4
:1002800002286CD15449898A8AB25649564B1B6858
:10029000C8185149093100F0DDFB4F484069524907
:1002A0000968401850490860084600680121890221
:1002B000884250D11E20012181404C4A116000BF6C
:1002C000FF210131474800F09FF805464848007873
:1002D0001D2836DC4748006885422ED100BF4648BD
:1002E000006980210840002804D044484249486001
:1002F0004348486000BF3E4909788902414A88184E
:1003000000F054F900240AE0364A1159384A1278AC
:1003100092023C4BD218101900F08CF9241D0120D8
:1003200080028442F0D33448006980210843324976
:100330000861012000F06AFB06E0022000F066FB85
:1003400002E0032000F062FB0120254908701E2016
:1003500000F05EFA00BF2048FFF7FAFE8DE71E4866
:10036000407A012804D0022808D0032830D128E0A0
:1003700001201B49087000F049FB2AE0184800786A
:1003800001281DD10021174800F059FB1248807B3D
:1003900000061149497B090408430F49097B0902FA
:1003A00008430D49C97A0843124908600A48807A0F
:1003B0000F49087002200A49087000200A490860A5
:1003C00007E0012000F022FB03200549087000E04F
:1003D00000BF00BF00BF50E720040020030700005B
:1003E00018000020200000200C00002080E100E028
:1003F0001000002014000020002002402301674567
:10040000AB89EFCD0010000810B502460B46094835
:10041000806801242043074CA060002104E088008C
:100420001058044C2060491C9942F8D301480068D8
:1004300010BD0000003002400548406940210843DB
:10044000034948610020C043024908617047000029
:10045000001002400030024010B52848C069012158
:10046000490608432549C861254800680121084319
:100470002349086000BF22484068C007C00F002819
:10048000F9D01F480068402108431D49086008460C
:100490000068022188431A4908600020C8610846A4
:1004A000C069184908431649C861084600684008F1
:1004B0004000086000BF12484068C007C00F002815
:1004C000F9D1012010490860C86148600F480E4901
:1004D000403108600C480068400840000A49086044
:1004E00007484069022108430549486100211E2050
:1004F00000F098F91E2000F08BF910BD00100240AA
:10050000006400400B00320000660040000060E024
:10051000104840690121490408430E4948610920F7
:10052000C00600680F21890588430521C9054018C8
:100530000921C90608600846406AFF21090388436B
:10054000012189034018090108430921C9064862AD
:1005500070470000001002401348806940084000C6
:10056000114988610846C069090488430E49C86179
:100570000846C0690121490688430B49C8610846FD
:100580004069012149048843074948610846406998
:100590000121890488430449486108464069402193
:1005A00088430149486170470010024030B5044655
:1005B00004250B20000400F073F80546042D17D124
:1005C0000C480069022108430A4908610846446151
:1005D000006940210843074908610B20000400F02E
:1005E0005FF8054603480069022188430149086114
:1005F000284630BD0020024004200D49C968C907C3
:10060000C90F002901D0012010E00949C968102252
:100610001140002901D0022008E00549C9680422E0
:100620001140002901D0032000E0042070470000A1
:100630000020024078B506460C46042500200090B4
:100640000B20000400F02CF80546042D24D113489B
:100650000069012108431149086134800B2000041E
:1006600000F01EF80546042D10D1B01C0090200C9F
:10067000009908800B20000400F012F80546074896
:100680000069400840000549086105E00348006929
:100690004008400001490861284678BD002002401A
:1006A00010B503460424FFF7A7FF044603E0FFF755
:1006B000A3FF04465B1E012C01D1002BF7D1002BB8
:1006C00000D10524204610BD00BFFEE710B5042070
:1006D00000F09EF80021042000F0A4F8384880685B
:1006E0000121C9020843364988600846006809218B
:1006F0000904084332490860084640680C21084054
:10070000082806D100BF2E4840680C210840042864
:10071000F9D12B480068012109068843284908605F
:1007200000BF274800680121490608400028F8D189
:10073000234840687B21C903884321494860084613
:1007400040681121090408431D49486008460068B3
:100750000121090608431A49086000BF18480068CB
:100760000121490608400028F8D015484068800853
:100770008000134948600846406802210843104938
:10078000486000BF0E4840680C2108400828F9D195
:100790000B484068F0218843094948600846406892
:1007A00048600846406807210902884304494860B8
:1007B00008464068091508430149486010BD00001B
:1007C0000010024010B572B607484068074908603B
:1007D0000549086880F3088800BFFFF7BDFE03489D
:1007E0000068804710BD0000001000081C000020B9
:1007F0000648806880210840002805D003488068AA
:100800000904084301498860704700000010024055
:10081000C206D20E01219140014A116070470000CA
:1008200000E100E010B5002819DA1A4A03071B0F8F
:10083000083B9B089B00D2588307DC0EFF23A34094
:100840009A438B071B0E8407E40EA3401A43114BF7
:100850000407240F083CA408A4001A5118E00E4A0B
:1008600003231B02D21883089B00D2588307DC0E97
:10087000FF23A3409A438B071B0E8407E40EA3407B
:100880001A43054B032424021B198408A4001A519F
:1008900010BD00001CED00E000E100E0704700002A
:1008A000094880680821084000280BD00648806865
:1008B00009040843044988600846406880088000AD
:1008C000401C4860704700000010024009488069E1
:1008D00001210843074988610846C06909040843A3
:1008E0000449C861044800681021084302490860AF
:1008F00070470000001002400000014070470000F7
:1009000011201D4908601D4840681C494860084680
:1009100040684860084640687B21C90388431749FE
:100920004860084640680521C904084313494860E7
:10093000084600680121090608431049086000BF05
:100940000E4800680121490608400028F8D00B48ED
:1009500040688008800009494860084640680221D4
:1009600008430649486000BF044840680C2108401D
:100970000828F9D170470000002002400010024012
:1009800002480068401C01490860704700000020D0
:1009900010B51B4800680121084319490860084642
:1009A00040681849084016494860084600681649DA
:1009B00008401349086008460068012189048843FB
:1009C0000F490860084640683F21090488430C49E4
:1009D00048600846C06A00090001C8620846006B0A
:1009E000FF21D4318843064908630846406B40081C
:1009F0004000486300208860FFF782FF10BD0000C0
:100A0000001002400CB8FF08FFFFF6FE00B50246DA
:100A100002480270FFF7ECFB00BD0000040000205C
:100A200002E008C8121F08C1002AFAD170477047B7
:100A3000002001E001C1121F002AFBD170470246CD
:100A4000002000BF03E000231354431C98B28842E7
:100A5000F9DB704710B50346002003E00C5C1C5422
:100A6000441CA0B29042F9DB10BD0000044A11689A
:100A700000BF034A1268521A8242FAD3704700003C
:100A800000000020184C601E1849884200D90CE074
:100A9000601E174948610321081FFFF7C3FE0020AD
:100AA000134988610720086100BFFFF70FFEFFF7B9
:100AB0000DFFFFF72DFDFFF7CFFCFFF7BDFCFF207B
:100AC000F530FFF7D3FF0B480078002801D1FFF77E
:100AD00079FE08E007480078032804D13220FFF7A8
:100AE000C5FFFFF76FFEF5E780BB0000FFFFFF00CB
:100AF00000E000E018000020180B000800000020B3
:100B000020000000200A0008380B00082000002008
:100B100030080000300A000800000000000000005B
:100B200000000000000000000000000000000000C5
:080B30000000000000000000BD
:04000005080000C12E
:00000001FF
