:020000040800F2
:1000000060080020D5000008D5040008AD030008F2
:1000100000000000000000000000000000000000E0
:10002000000000000000000000000000E1050008E2
:1000300000000000000000008105000865060008BF
:100040000501000805010008050100080501000878
:1000500085050008050100080501000805010008E4
:100060000501000805010008050100080501000858
:100070000501000805010008050100080501000848
:100080000501000800000000000000000501000854
:100090000000000005010008050100080501000836
:1000A0000000000005010008050100087D070008A8
:1000B0000501000800000000050100080501000816
:1000C0000348854600F032F800480047590C000804
:1000D000600800200C4880F308880C480168090E6D
:1000E0000B4A914205D10B480B4901600B480C4962
:1000F00001600C4880470C480047FEE7FEE7FEE73A
:10010000FEE7FEE7FEE700006008002004000000B4
:100110001F00000018100240010000000000014014
:100120000000000075060008C1000008064C01250B
:10013000064E05E0E36807CC2B430C3C984710348F
:10014000B442F7D3FFF7C0FF900E0008B00E0008CE
:1001500010B502460B460948806801242043074C2D
:10016000A060002104E088001058044C2060491C65
:100170009942F8D30148006810BD000000300240E9
:100180000548406940210843034948610020C043B5
:100190000249086170470000001002400030024030
:1001A0000F4840690121490408430D49486109206D
:1001B000C00600680F21890488430521C90440183E
:1001C0000921C90608600846406AFF2109018843E1
:1001D0001030FF21013108430921C90648627047E8
:1001E0000010024010B50A488069012189030843C4
:1001F00007498861D0200749C86025200860002190
:100200001B2000F081F91B2000F074F910BD0000E4
:100210000010024000380140134880694008400047
:10022000114988610846C069090488430E49C861BC
:100230000846C0690121490688430B49C861084640
:1002400040690121490488430749486108464069DB
:1002500001218904884304494861084640694021D6
:1002600088430149486170470010024030B5044698
:1002700004250B20000400F085F80546042D17D155
:100280000C480069022108430A4908610846446194
:10029000006940210843074908610B20000400F071
:1002A00071F8054603480069022188430149086145
:1002B000284630BD0020024004200D49C968C90706
:1002C000C90F002901D0012010E00949C968102296
:1002D0001140002901D0022008E00549C968042224
:1002E0001140002901D0032000E0042070470000E5
:1002F0000020024078B506460C46042500200090F8
:100300000B20000400F03EF80546042D24D11348CC
:100310000069012108431149086134800B20000461
:1003200000F030F80546042D10D1B01C0090200CD0
:10033000009908800B20000400F024F805460748C7
:100340000069400840000549086105E0034800696C
:100350004008400001490861284678BD002002405D
:100360000548006980210840002804D0034802495C
:1003700048600348486070470020024023016745F9
:10038000AB89EFCD10B503460424FFF795FF044673
:1003900003E0FFF791FF04465B1E012C01D1002B07
:1003A000F7D1002B00D10524204610BD00BFFEE789
:1003B00010B5042000F09EF80021042000F0A4F8FD
:1003C000384880680121C9020843364988600846D8
:1003D000006809210904084332490860084640685A
:1003E0000C210840082806D100BF2E4840680C2187
:1003F00008400428F9D12B480068012109068843E8
:100400002849086000BF27480068012149060840C4
:100410000028F8D1234840687B21C903884321493B
:100420004860084640681121090408431D49486096
:10043000084600680121090608431A49086000BF00
:10044000184800680121490608400028F8D01548DE
:1004500040688008800013494860084640680221CF
:1004600008431049486000BF0E4840680C2108400E
:100470000828F9D10B484068F021884309494860B1
:1004800008464068486008464068072109028843DA
:100490000449486008464068091508430149486016
:1004A00010BD00000010024010B572B60748406849
:1004B000074908600549086880F3088800BFFFF70E
:1004C000ABFE03480068804710BD00000010000824
:1004D000340000200648806880210840002805D0AC
:1004E0000348806809040843014988607047000098
:1004F00000100240C206D20E01219140014A116053
:100500007047000000E100E010B5002819DA1A4A2F
:1005100003071B0F083B9B089B00D2588307DC0E88
:10052000FF23A3409A438B071B0E8407E40EA340CE
:100530001A43114B0407240F083CA408A4001A51C5
:1005400018E00E4A03231B02D21883089B00D258DE
:100550008307DC0EFF23A3409A438B071B0E8407FF
:10056000E40EA3401A43054B032424021B198408FC
:10057000A4001A5110BD00001CED00E000E100E0F5
:1005800070470000094880680821084000280BD007
:1005900006488068090408430449886008464068A2
:1005A00080088000401C4860704700000010024036
:1005B0000948806901210843074988610846C069E4
:1005C000090408430449C86104480068102108432D
:1005D000024908607047000000100240000001401E
:1005E0007047000011201D4908601D4840681C49E3
:1005F0004860084640684860084640687B21C90357
:10060000884317494860084640680521C9040843E3
:10061000134948600846006801210906084310494B
:10062000086000BF0E480068012149060840002804
:10063000F8D00B48406880088000094948600846A7
:100640004068022108430649486000BF04484068EA
:100650000C2108400828F9D1704700000020024012
:100660000010024002480068401C014908607047C1
:100670001800002010B51B480068012108431949E3
:10068000086008464068184908401649486008460E
:1006900000681649084013490860084600680121AF
:1006A000890488430F490860084640683F210904CF
:1006B00088430C4948600846C06A00090001C862C6
:1006C0000846006BFF21D431884306490863084679
:1006D000406B40084000486300208860FFF782FFBD
:1006E00010BD0000001002400CB8FF08FFFFF6FE2E
:1006F00070B5044600251E21194800F095FA19A18D
:10070000174800F007FA07E028466A1CD5B2144AD9
:10071000115C184800F0A8FB1148405D0028F3D197
:1007200000E000BF144800780028FAD000201249E9
:100730000870322000F084FA04E02178641C0D482F
:1007400000F092FB20780028F7D1322000F078FAF0
:100750000848006A402108430649086270BD00004D
:100760004004002041542B43495053454E443D31F1
:100770002C340D00003801400200002010B5002488
:10078000D248C06920210840202872D1CF482030AB
:100790008088C4B2242C04D0462C08D0572C22D1F7
:1007A00013E0CB480078401CC94908701FE0C848D6
:1007B0000078012805D1C6480078401CC44908705B
:1007C00002E00020C249087011E0C1480078022808
:1007D00005D1BF480078401CBD49087002E00020E8
:1007E000BB49087003E00020B949087000BF00BF92
:1007F000B7480078032807D10120B6490870B649E8
:1008000008700020B2490870B248007800281CD156
:10081000B2480088401CB149088008460088032877
:1008200007DDAF4801780078401CAD4A1070AD4834
:100830004454AB480078052807D10220A549087028
:100840000020A7490870A5490880A7480078022819
:1008500004D1A04804700020A3490870242C02D0C1
:10086000432C15D106E0A0480078401C9E49087032
:1008700012E005E19C480078012805D19A480078EB
:10088000401C9949087002E000209749087003E075
:1008900000209549087000BF00BF202C07D03E2CD7
:1008A00013D192480078401C9049087011E08F489D
:1008B0000078012805D18D480078401C8B490870CC
:1008C00002E000208949087003E000208749087091
:1008D00000BF00BF85480078022805D10120844967
:1008E000087000208149087082480078002828D0CC
:1008F0003A2C0CD080480078042808DA7E48017829
:100900000078401C7C4A10707C48445419E07B48B5
:1009100000F038F97A4908800846008801218902E8
:10092000884205D9002076490880EE206A4908707F
:100930000020704908707049087004216F4800F069
:1009400073F96F480088002821D064480088401C53
:100950006249088008460088032807DD6948018845
:100960000088401C674A10806748445465480088E6
:100970006349098888420AD162480088634908604F
:1009800000205F4908805F49088054490880524828
:100990000078022874D1452C24D008DC2B2C0DD0F3
:1009A0002C2C5FD0312C72D0432C7ED130E0492CDE
:1009B0003CD0522C08D0562C77D145E054480078D2
:1009C000401C5349087074E051480078012805D153
:1009D0004F480078401C4E49087002E000204C4906
:1009E000087066E04A480078022807D04848007836
:1009F000042803D046480078072805D144480078E9
:100A0000401C4349087002E000204149087050E052
:100A10003F480078032805D13D480078401C3C49F8
:100A2000087002E000203A49087042E03848007837
:100A3000052805D136480078401C3549087002E089
:100A400000203349087034E031480078062805D189
:100A50002F480078401C2E49087002E000202C49E5
:100A6000087026E02A480078082803D02848007833
:100A70000A2808D126480078401C2549087005E05E
:100A800022E004E011E000202149087011E0204834
:100A90000078092805D11E480078401C1C490870C0
:100AA00002E000201A49087003E00020184908708D
:100AB00000BF00BF164800780B2805D101200D4962
:100AC000087000201249087010BD00000038014075
:100AD000000000200500002030000020120000204F
:100AE0000F0000201C000020060000200100002054
:100AF00002000020040000200E0000200900002059
:100B000010000020140000204000002024000020DD
:100B1000030000200FB410B50846074A02A900F0F0
:100B20001CF8044602A9002000F026F8204610BC5C
:100B300008BC04B018470000790B000802E008C8A0
:100B4000121F08C1002AFAD170477047002001E047
:100B500001C1121F002AFBD17047F8B516460F4697
:100B60000446002503E03946B047641C6D1C20781C
:100B70000028F8D12846F8BD0A68531C0B60107095
:100B80007047000001460020224A1070224A10706F
:100B9000224A1080224A10702BE000201E4A10705A
:100BA0001DE008782D2802D101201A4A10701C4837
:100BB0000078085C1B4A184B1B78D25C904209D124
:100BC000164800880A225043134A12788018134AA4
:100BD000108008E010480078401C0F4A10700E4842
:100BE00000780A28DDDB00BF0D480078401C0C4A65
:100BF00010700B480078085C0028CED105480078BA
:100C0000002804D0054800884042044A1080034868
:100C10000088704738000020390000203C00002088
:100C20003A000020840E00080246002000BF03E0C6
:100C300000231354431C98B28842F9DB704700002C
:100C4000044A116800BF034A1268521A8242FAD35A
:100C50007047000018000020694C601E69498842F6
:100C600000D90CE0601E684948610321081FFFF7A6
:100C70004BFC0020644988610720086100BFFFF732
:100C800097FBFFF795FCFFF78BFAFFF7ABFAFFF73F
:100C900077FA5E48FFF7D4FF5D480078002801D15D
:100CA000FFF702FCAAE05B480078012804D0022884
:100CB0000DD0032838D130E001205549087056A0E6
:100CC000FFF716FDFF20F530FFF7BAFF2DE0504883
:100CD0000078012820D100215148FFF7A5FF514895
:100CE000007900064F49C978090408434D498978BD
:100CF000090208434B49497808434B490860494871
:100D000000784A490870022041490870002048498B
:100D1000086048A0FFF7ECFC07E048A0FFF7E8FCFC
:100D200003203B49087000E000BF00BF384800784E
:100D300002284BD13E48006801218902884245D1F2
:100D40001B20012181403F4A116000BFFF2101317A
:100D50003348FFF7FDF90546344800781D282BDCA1
:100D600031480068854223D1FFF7FAFA2F49097804
:100D70008902354A8818FFF779FA00240AE0284AE0
:100D800011592A4A127892022F4BD2181019FFF7E4
:100D9000B1FA241D012080028442F0D32B4800695F
:100DA000802108432949086122A0FFF7A1FC06E041
:100DB00027A0FFF79DFC02E027A0FFF799FC012088
:100DC000134908701B20FFF795FB00BF10480078FF
:100DD000EE280AD122A0FFF78BFC01200C490870F5
:100DE0000C4908706420FFF72BFF0948007803289E
:100DF00004D13220FFF724FFFFF756FB53E7000032
:100E000080BB0000FFFFFF0000E000E0881300004F
:100E10003000002005000020244F4B31000000006E
:100E2000400000201C0000202C0000202800002092
:100E300024000020244F4B3200000000244F4B338D
:100E40000000000080E100E00010000800200240E7
:100E500024455231000000002445523200000000B9
:100E6000244552330000000000BF054AD2694023E8
:100E70001A40402AF9D0024A2032118170470000FE
:100E800000380140303132333435363738390000DC
:100E9000B00E000800000020400000003C0B0008DD
:100EA000F00E000840000020200800004C0B000855
:100EB0000000000000FF0000000000000000000033
:100EC0000000000000000000000000000000000022
:100ED0000000000000000000000000000000000012
:100EE0000000000000000000000000000000000002
:04000005080000C12E
:00000001FF
